:1000000045C0000060C000005EC000005CC0000091
:100010005AC0000058C0000056C0000054C0000084
:1000200052C0000050C000004EC000004CC0000094
:100030004AC0000048C0000046C0000044C00000A4
:100040002BC2000040C000003EC000003CC00000C9
:100050003AC0000038C0000036C0000034C00000C4
:1000600032C0000030C000002EC000002CC00000D4
:100070002AC0000028C0000026C0000024C00000E4
:1000800022C0000020C000001EC0000011241FBEBE
:10009000CFEFD0E1DEBFCDBF12E0A0E0B1E0E8E5F8
:1000A000F0E100E00BBF02C007900D92A83EB1073F
:1000B000D9F723E0A8EEB2E001C01D92A038B20744
:1000C000E1F7CBD6C7C79CCF2091F2023091F30263
:1000D0008091F0029091F102820F931F019656D702
:1000E00052D787709078992324F40197886F9F6F77
:1000F0000196019690937D0380937C0344D787708B
:100100009078992324F40197886F9F6F0196019648
:1001100090937F0380937E03E0917C03F0917D03B5
:1001200080917E0390917F03EE0FFF1FEE0FFF1F64
:10013000EE0FFF1FE80FF91FED5CFC4F808181304F
:10014000C1F080917C0390917D03019731F48091FF
:100150007E0390917F03089761F080917C039091DA
:100160007D030397D1F580917E0390917F030597DE
:10017000A1F56091F2027091F3024091F00250916A
:10018000F10220917C0330917D03649FC001659F43
:10019000900D749F900D11240197820F931FF6D636
:1001A000F2D687709078992324F40197886F9F6F17
:1001B0000196019690937D0380937C03E4D687702B
:1001C0009078992324F40197886F9F6F0196019688
:1001D00090937F0380937E0377CFE0917C03F0912F
:1001E0007D0380917E0390917F03EE0FFF1FEE0F42
:1001F000FF1FEE0FFF1FE80FF91FED5CFC4F81E0C2
:1002000080830895209108013091090180917C0339
:1002100090917D032817390721F520910A0130912B
:100220000B0180917E0390917F0328173907C9F451
:1002300080910601909107010196909307018093A8
:10024000060181E090E09093EF028093EE028091AE
:100250000401909105018D9790930501809304010D
:1002600033CF08958091080190910901019731F4ED
:1002700080910A0190910B01089761F0809108012B
:1002800090910901039761F480910A0190910B010B
:10029000059731F481E090E09093ED028093EC02B9
:1002A00080910601909107010297BCF06091FC02D9
:1002B000EDEFF2E081E090E041E050E02191621347
:1002C00004C05093ED024093EC0201962091060188
:1002D00030910701821793078CF3089580910601EE
:1002E000909107010197A1F4809108019091090173
:1002F000E0910A01F0910B01880F991F880F991F57
:10030000880F991FE80FF91FED5CFC4F108237C072
:100310008091EE029091EF02019729F41092EF0282
:100320001092EE022CC0E0910601F0910701E55019
:10033000FD4F20818DEC289F212D11242695269597
:10034000269530E0A0910601B0910701F90131979F
:10035000A550BD4F4C91EE0FFF1FEE0FFF1FEE0F8C
:10036000FF1F56EF5203C001539F900D1124E80F59
:10037000F91FE45CFC4FE40FF11D319710822091CE
:100380000801309109018091F8029091F902820FE1
:10039000931F909309018093080120910A013091E5
:1003A0000B018091F6029091F702820F931F9093B8
:1003B0000B0180930A018091080190910901892B1A
:1003C00031F488E090E090930901809308018091D6
:1003D0000A0190910B01892B31F488E090E0909311
:1003E0000B0180930A0180910A0190910B010997FA
:1003F00031F481E090E090930B0180930A018091A9
:10040000080190910901099731F481E090E09093FF
:100410000901809308018091EE029091EF0201970B
:10042000A1F08091080190910901E0910A01F091F9
:100430000B01880F991F880F991F880F991FE80FCC
:10044000F91FED5CFC4F81E080830CDFE091060139
:10045000F0910701CF0101971816190664F4DF0126
:10046000A550BD4FE450FD4F8DEF92E02E912293A9
:10047000E817F907D9F72091080130910901809117
:100480000A0190910B01220F922F990F990F290FBA
:10049000820F8093FC0208951F920F920FB60F9265
:1004A00011240BB60F922F933F934F935F936F934B
:1004B0007F938F939F93AF93BF93EF93FF9380911D
:1004C000FA029091FB0299230CF407969595879573
:1004D00095958795959587952091FA023091FB0225
:1004E000AC01440F551F440F551F440F551F241BCB
:1004F000350B40B34130D1F41092F7021092F6025E
:100500004FEF5FEF5093F9024093F80241E050E063
:100510005093F5024093F4024091F0025091F102A1
:100520004F5F5F4F5093F1024093F00240B342306F
:10053000D1F44FEF5FEF5093F7024093F602109221
:10054000F9021092F80241E050E05093F502409316
:10055000F4024091F0025091F1024F5F5F4F5093CF
:10056000F1024093F00240B34430C1F441E050E066
:100570005093F7024093F6021092F9021092F8029B
:100580005093F5024093F4024091F0025091F10231
:100590004F5F5F4F5093F1024093F00240B34830F9
:1005A000C1F41092F7021092F60241E050E050932D
:1005B000F9024093F8025093F5024093F4024091FF
:1005C000F0025091F1024F5F5F4F5093F102409360
:1005D000F002FC01EE0FFF1FEE0FFF1FEE0FFF1FDB
:1005E000E20FF31FE45CFC4F40814423A1F001962D
:1005F000AC01440F551F880F991F880F991F880F52
:10060000991F840F951F8C579D4FFC01E20FF31F1C
:100610008181809362008091FA029091FB02803484
:10062000910554F48091FA029091FB020196909307
:10063000FB028093FA0204C01092FB021092FA02AD
:100640008091EC029091ED02892BD9F42091F20275
:100650003091F30280910401909105012817390728
:1006600054F48091F2029091F30201969093F30278
:100670008093F20206C032DEC5DD1092F3021092C2
:10068000F202FF91EF91BF91AF919F918F917F9176
:100690006F915F914F913F912F910F900BBE0F90F3
:1006A0000FBE0F901F901895F8941092FB021092B5
:1006B000FA0283E090E090930B0180930A019093FB
:1006C0000901809308011092F9021092F802109229
:1006D000F7021092F6021092F5021092F4021092B4
:1006E000F3021092F2021092F1021092F00281E0F5
:1006F00090E090930701809306011092EF02109210
:10070000EE021092ED021092EC0280EA9FE09093CC
:10071000050180930401789408958091F4029091EA
:10072000F502892BD1F31092F5021092F40208958C
:1007300080E090E09C01992314F4295F3F4F3595A8
:1007400027953595279535952795A901440F551F70
:10075000440F551F440F551FBC01641B750BAB01A3
:10076000F901EE0FFF1FEE0FFF1FEE0FFF1FE60F49
:10077000F71FE45CFC4F6081662369F0F901EE0F1E
:10078000FF1FEE0FFF1FEE0FFF1F4E0F5F1FFA013F
:10079000E45CFC4F10828034910511F00196CACFC1
:1007A00008951F93CF93DF93F8948130910509F05A
:1007B000DFC06115710509F0BEC1E4E7F2E044E86D
:1007C00052E01DEC20E030E0D1E0C191C19F812DCD
:1007D000112486958695869590E0D901A81BB90BC2
:1007E000AA0FBB1FAC0FB11DA45CBC4FDC93E41778
:1007F000F50759F7B8C141914D9F512D11245695D8
:1008000056955695DC01A51BB109AA0FBB1FA40F75
:10081000B11DA45CBC4FCC93E217F30761F7AFC1E5
:1008200041914D9F512D1124569556955695DC01B9
:10083000A51BB109AA0FBB1FA40FB11DA45CBC4F1F
:10084000CC93E217F30761F7A6C141914D9F512D5B
:100850001124569556955695DC01A51BB109AA0F92
:10086000BB1FA40FB11DA45CBC4FCC93E217F307D0
:1008700061F79DC141914D9F512D1124569556957B
:100880005695DC01A51BB109AA0FBB1FA40FB11D12
:10089000A45CBC4FCC93E217F30761F794C141917C
:1008A0004D9F512D1124569556955695DC01A51B4B
:1008B000B109AA0FBB1FA40FB11DA45CBC4FCC9300
:1008C000E217F30761F78BC141914D9F512D112420
:1008D000569556955695DC01A51BB109AA0FBB1F6D
:1008E000A40FB11DA45CBC4FCC93E217F30761F7D2
:1008F00082C14191479F512D112456955695569589
:10090000DC01A51BB109AA0FBB1FA40FB11DA45C7C
:10091000BC4F6C93E217F30761F70BC14191479FFE
:10092000512D1124569556955695DC01A51BB109FC
:10093000AA0FBB1FA40FB11DA45CBC4F6C93E217A0
:10094000F30761F7F6C04191479F512D1124569549
:1009500056955695DC01A51BB109AA0FBB1FA40F24
:10096000B11DA45CBC4F6C93E217F30761F7E1C0C3
:10097000029709F0DEC06115710509F049C1E5ED86
:10098000F1E045EE51E01DEC20E030E0D1E0C19116
:10099000C19F812D112486958695869590E0D90179
:1009A000A81BB90BAA0FBB1FAC0FB11DA45CBC4F99
:1009B000DC93E417F50759F743C141914D9F512D41
:1009C0001124569556955695DC01A51BB109AA0F21
:1009D000BB1FA40FB11DA45CBC4FCC93E217F3075F
:1009E00061F73AC141914D9F512D1124569556956D
:1009F0005695DC01A51BB109AA0FBB1FA40FB11DA1
:100A0000A45CBC4FCC93E217F30761F731C141916D
:100A10004D9F512D1124569556955695DC01A51BD9
:100A2000B109AA0FBB1FA40FB11DA45CBC4FCC938E
:100A3000E217F30761F728C141914D9F512D112411
:100A4000569556955695DC01A51BB109AA0FBB1FFB
:100A5000A40FB11DA45CBC4FCC93E217F30761F760
:100A60001FC141914D9F512D112456955695569574
:100A7000DC01A51BB109AA0FBB1FA40FB11DA45C0B
:100A8000BC4FCC93E217F30761F716C141914D9F1C
:100A9000512D1124569556955695DC01A51BB1098B
:100AA000AA0FBB1FA40FB11DA45CBC4FCC93E217CF
:100AB000F30761F70DC14191479F512D11245695C0
:100AC00056955695DC01A51BB109AA0FBB1FA40FB3
:100AD000B11DA45CBC4F6C93E217F30761F729C00A
:100AE0004191479F512D1124569556955695DC01FD
:100AF000A51BB109AA0FBB1FA40FB11DA45CBC4F5D
:100B00006C93E217F30761F714C04191479F512D91
:100B10001124569556955695DC01A51BB109AA0FCF
:100B2000BB1FA40FB11DA45CBC4F6C93E217F3076D
:100B300061F77894DAC06130710549F4ECE6F2E0CF
:100B400024E732E0DDEC80E090E0C1E054CE62309A
:100B5000710549F4EEE5F2E02CE632E0DDEC80E0F0
:100B600090E0C1E05DCE6330710549F4E0E5F2E06C
:100B70002EE532E0DDEC80E090E0C1E066CE64304E
:100B8000710549F4E1E4F2E020E532E0DDEC80E0DB
:100B900090E0C1E06FCE6530710549F4E2E3F2E028
:100BA00021E432E0DDEC80E090E0C1E078CE663018
:100BB000710549F4EEE1F2E022E332E0DDEC80E0A1
:100BC00090E0C1E081CE6730710549F4E0E1F2E0E8
:100BD0002EE132E07DEC80E090E061E08ACE68308A
:100BE000710549F4E8EFF1E020E132E07DEC80E0CE
:100BF00090E061E093CE6930710509F09ACFE5EE9F
:100C0000F1E028EF31E07DEC80E090E061E09BCE08
:100C10006130710549F4EDECF1E025ED31E0DDECFA
:100C200080E090E0C1E0C9CE6230710549F4EFEB9D
:100C3000F1E02DEC31E0DDEC80E090E0C1E0D2CEDF
:100C40006330710549F4E1EBF1E02FEB31E0DDECCD
:100C500080E090E0C1E0DBCE6430710549F4E2EA67
:100C6000F1E021EB31E0DDEC80E090E0C1E0E4CEAA
:100C70006530710549F4E3E9F1E022EA31E0DDECA9
:100C800080E090E0C1E0EDCE6630710549F4EFE719
:100C9000F1E023E931E0DDEC80E090E0C1E0F6CE68
:100CA0006730710549F4E1E7F1E02FE731E07DECD1
:100CB00080E090E061E0FFCE6830710549F4E9E53D
:100CC000F1E021E731E07DEC80E090E061E008CFE9
:100CD0006930710509F02DCFE6E4F1E029E531E056
:100CE0007DEC80E090E061E010CFDF91CF911F912B
:100CF0000895CF93DF93F8948091060190910701B6
:100D000001976AE070E0CCD0C0910601D091070154
:100D1000219726EF2603C001279F900D1124C80FAD
:100D2000D91F82E090E03DDDBE0181E090E039DD39
:100D30007894DF91CF910895CF93F894EAE3F1E0AE
:100D400046E451E0CDEC20E030E071E061916C9F31
:100D5000812D112486958695869590E0D901A81B52
:100D6000B90BAA0FBB1FA60FB11DA45CBC4F7C938F
:100D7000E417F50759F77894CF910895CF93F89435
:100D8000EBE2F1E04AE351E0CDEC20E030E071E04D
:100D900061916C9F812D112486958695869590E0B2
:100DA000D901A81BB90BAA0FBB1FA60FB11DA45CCC
:100DB000BC4F7C93E417F50759F77894CF910895C9
:100DC000CF93F894ECE0F1E04BE251E0CDEC20E081
:100DD00030E071E061916C9F812D1124869586959C
:100DE000869590E0D901A81BB90BAA0FBB1FA60FCF
:100DF000B11DA45CBC4F7C93E417F50759F77894B8
:100E0000CF910895F8948091060190910701019780
:100E10009093EB028093EA022091EA023091EB0278
:100E20008091E8029091E902821793070CF484DF25
:100E30008091EA029091EB02CD9709F49FDF209117
:100E4000EA023091EB028091E8029091E902821768
:100E500093070CF0B5DF78940895F8948FEF8093A2
:100E6000610011BA82E083BF81E087BF78941CDC07
:100E70002BD953DC8091EC029091ED02892BD1F3B8
:100E800057DC37DF1092F5021092F40246DC50DC9A
:100E9000B9DF1092F5021092F4023FDC49DCE7CF93
:100EA00097FB072E16F4009406D077FD08D00BD0E0
:100EB00007FC05D03EF4909581959F4F089570955D
:100EC00061957F4F0895AA1BBB1B51E107C0AA1F64
:100ED000BB1FA617B70710F0A61BB70B881F991FDB
:100EE0005A95A9F780959095BC01CD0108958F92F0
:100EF0009F92AF92BF92CF92DF92EF92FF92CF93E9
:100F0000DF93EC01688179818A819B81611571058C
:100F10008105910521F464E279ED8BE597E02DE1FF
:100F200033EF41E050E03DD049015A019B01AC0153
:100F3000A7EAB1E451D06B017C01ACEEB4EFA5019E
:100F4000940156D0C60ED71EE81EF91EF7FE06C045
:100F500081E0C81AD108E10880E8F80AC882D9827D
:100F6000EA82FB82E894D7F8EE24FF24C601DF91E1
:100F7000CF91FF90EF90DF90CF90BF90AF909F9078
:100F80008F900895B4CF80E091E0B1CFA0E0B0E0C1
:100F90008093000190930101A0930201B09303019B
:100FA0000895052E97FB16F4009406D057FD0CD03B
:100FB00023D007FC09D07EF49095809570956195BB
:100FC0007F4F8F4F9F4F08955095409530952195B5
:100FD0003F4F4F4F5F4F089531D0A59F900DB49F65
:100FE000900DA49F800D911D11240895B7FFF4CF9B
:100FF000F3DF821B930B0895A1E21A2EAA1BBB1BE1
:10100000FD010DC0AA1FBB1FEE1FFF1FA217B307D4
:10101000E407F50720F0A21BB30BE40BF50B661FEA
:10102000771F881F991F1A9469F7609570958095AE
:1010300090959B01AC01BD01CF010895A29FB00125
:10104000B39FC001A39F01D0B29F700D811D1124D9
:08105000911D0895F894FFCFF3
:1010580001000000A00F01000300030001020304C7
:1010680005060C0F15161718191A1E1F2021222302
:1010780024252B34363E3F4048494A00070B1016BA
:10108800191F24282F3D483F4A411E1520231A25A1
:101098003D48494B4200464748493F352B21170DEB
:1010A800030201000A141E1F20000A141E28323CE5
:1010B800464748493F352B2A291F2021170D03028F
:1010C800011E140A000102030D17212B353F490D9B
:1010D800030201000A141E28323C464748493F359E
:1010E8002B2A29030201000A141E1F202B353F4812
:1010F800473C35343332281E150B020C16202A3E85
:10110800480A01020D17201F292A353F48473C1479
:101118000A01020D17212A333C46474849020C169A
:10112800202A343E4802010A1E28323C47483F35EF
:101138002B21170D004A4B4C4D43392F251B110706
:101148000605040E18222324040E18222C36404AC1
:101158004B4C4D43392F2E2D2324251B11070605F3
:1011680022180E04050607111B252F39434D1107B8
:101178000605040E18222C36404A4B4C4D43392F95
:101188002E2D070605040E182223242F39434C4B15
:1011980040393837362C22190F06101A242E424CA3
:1011A8000E0506111B24232D2E39434C4B40180ED7
:1011B8000506111B252E37404A4B4C4D06101A24A4
:1011C8002E38424C06050E222C36404B4C43392F04
:1011D800251B1100000000000000000000000007AF
:1011E80006050403020100000027262524232221E6
:1011F8002000004746454443424140000067666579
:1012080064636261600000878685848382818000D0
:1012180000A7A6A5A4A3A2A1A00000C7C6C5C4C3D1
:10122800C2C1C00000E7E6E5E4E3E2E1E000000057
:081238000000000000000000AE
:00000001FF
